:020000040800F2
:100000000000032041240008CD150008CF1500088A
:10001000D1150008D3150008D51500080000000010
:10002000000000000000000000000000D7150008DC
:10003000D915000800000000DB150008DD150008D8
:1000400091240008912400089124000891240008BC
:1000500091240008912400089124000891240008AC
:10006000912400089124000891240008912400089C
:10007000912400089124000891240008912400088C
:10008000912400089124000891240008912400087C
:10009000912400089124000891240008912400086C
:1000A000912400089124000891240008912400085C
:1000B000912400089124000891240008912400084C
:1000C000912400089124000891240008912400083C
:1000D000912400089124000891240008912400082C
:1000E000912400089124000891240008912400081C
:1000F000912400089124000891240008912400080C
:1001000091240008912400089124000891240008FB
:1001100091240008912400089124000891240008EB
:1001200091240008912400089124000891240008DB
:1001300091240008912400089124000891240008CB
:1001400091240008912400089124000891240008BB
:1001500091240008912400089124000891240008AB
:10016000912400089124000891240008912400089B
:100170009124000891240008912400080000000048
:10018000912400089124000891240008912400087B
:10019000912400089124000891240008912400086B
:0C01A0009124000891240008912400081C
:1001AC0081F0004102E000BF83F0004330B54FEA1C
:1001BC0041044FEA430594EA050F08BF90EA020F89
:1001CC001FBF54EA000C55EA020C7FEA645C7FEA1C
:1001DC00655C00F0E2804FEA5454D4EB5555B8BF3F
:1001EC006D420CDD2C4480EA020281EA030382EAB0
:1001FC00000083EA010180EA020281EA0303362D42
:10020C0088BF30BD11F0004F4FEA01314FF4801C14
:10021C004CEA113102D0404261EB410113F0004F26
:10022C004FEA03334CEA133302D0524263EB4303DD
:10023C0094EA050F00F0A780A4F10104D5F1200E7B
:10024C000DDB02FA0EFC22FA05F2801841F10001D6
:10025C0003FA0EF2801843FA05F359410EE0A5F1AA
:10026C0020050EF1200E012A03FA0EFC28BF4CF0DB
:10027C00020C43FA05F3C01851EBE37101F0004591
:10028C0007D54FF0000EDCF1000C7EEB00006EEB9E
:10029C000101B1F5801F1BD3B1F5001F0CD3490828
:1002AC005FEA30004FEA3C0C04F101044FEA44527F
:1002BC0012F5800F80F09A80BCF1004F08BF5FEA06
:1002CC00500C50F1000041EB045141EA050130BDE6
:1002DC005FEA4C0C404141EB0101013C28BFB1F5F8
:1002EC00801FE9D291F0000F04BF01460020B1FA43
:1002FC0081F308BF2033A3F10B03B3F120020CDA16
:10030C000C3208DD02F1140CC2F10C0201FA0CF0F3
:10031C0021FA02F10CE002F11402D8BFC2F1200C58
:10032C0001FA02F120FA0CFCDCBF41EA0C0190400E
:10033C00E41AA2BF01EB0451294330BD6FEA040457
:10034C001F3C1CDA0C340EDC04F11404C4F1200242
:10035C0020FA04F001FA02F340EA030021FA04F354
:10036C0045EA030130BDC4F10C04C4F1200220FAAB
:10037C0002F001FA04F340EA0300294630BD21FAE9
:10038C0004F0294630BD94F0000F83F4801306BFAF
:10039C0081F480110134013D4EE77FEA645C18BFA3
:1003AC007FEA655C29D094EA050F08BF90EA020F3A
:1003BC0005D054EA000C04BF1946104630BD91EA32
:1003CC00030F1EBF0021002030BD5FEA545C05D135
:1003DC004000494128BF41F0004130BD14F5800474
:1003EC003CBF01F5801130BD01F0004545F0FE41E8
:1003FC0041F470014FF0000030BD7FEA645C1ABF1D
:10040C00194610467FEA655C1CBF0B46024650EA53
:10041C00013406BF52EA033591EA030F41F400217F
:10042C0030BD00BF90F0000F04BF0021704730B505
:10043C004FF4806404F132044FF000054FF00001DA
:10044C0050E700BF90F0000F04BF0021704730B59B
:10045C004FF4806404F1320410F0004548BF404270
:10046C004FF000013EE700BF42004FEAE2014FEAC5
:10047C0031014FEA02701FBF12F07F4393F07F4FA0
:10048C0081F06051704732F07F4208BF704793F0A3
:10049C007F4F04BF41F40021704730B54FF46074B6
:1004AC0001F0004521F000411CE700BF50EA0102B9
:1004BC0008BF704730B54FF000050AE050EA010262
:1004CC0008BF704730B511F0004502D5404261EBD2
:1004DC0041014FF4806404F132045FEA915C3FF413
:1004EC00D8AE4FF003025FEADC0C18BF03325FEAB0
:1004FC00DC0C18BF033202EBDC02C2F1200300FA61
:10050C0003FC20FA02F001FA03FE40EA0E0021FA85
:10051C0002F11444BDE600BF70B54FF0FF0C4CF473
:10052C00E06C1CEA11541DBF1CEA135594EA0C0F25
:10053C0095EA0C0F00F0DEF82C4481EA030621EA60
:10054C004C5123EA4C5350EA013518BF52EA03359B
:10055C0041F4801143F4801338D0A0FB02CE4FF04D
:10056C000005E1FB02E506F00042E0FB03E54FF07D
:10057C000006E1FB03569CF0000F18BF4EF0010E75
:10058C00A4F1FF04B6F5007F64F5407404D25FEA71
:10059C004E0E6D4146EB060642EAC62141EA555124
:1005AC004FEAC52040EA5E504FEACE2EB4F1FD0C66
:1005BC0088BFBCF5E06F1ED8BEF1004F08BF5FEAE4
:1005CC00500E50F1000041EB045170BD06F0004696
:1005DC0046EA010140EA020081EA0301B4EB5C0443
:1005EC00C2BFD4EB0C0541EA045170BD41F480113B
:1005FC004FF0000E013C00F3AB8014F1360FDEBF60
:10060C00002001F0004170BDC4F10004203C35DA3B
:10061C000C341BDC04F11404C4F1200500FA05F3BE
:10062C0020FA04F001FA05F240EA020001F000425F
:10063C0021F0004110EBD37021FA04F642EB0601D5
:10064C005EEA430E08BF20EAD37070BDC4F10C04FF
:10065C00C4F1200500FA04F320FA05F001FA04F2C3
:10066C0040EA020001F0004110EBD37041F10001AF
:10067C005EEA430E08BF20EAD37070BDC4F12005BA
:10068C0000FA05F24EEA020E20FA04F301FA05F222
:10069C0043EA020321FA04F001F0004121FA04F2CA
:1006AC0020EA020000EBD3705EEA430E08BF20EA9A
:1006BC00D37070BD94F0000F0FD101F000464000D4
:1006CC0041EB010111F4801F08BF013CF7D041EA56
:1006DC00060195F0000F18BF704703F0004652005A
:1006EC0043EB030313F4801F08BF013DF7D043EA2B
:1006FC000603704794EA0C0F0CEA135518BF95EAE1
:10070C000C0F0CD050EA410618BF52EA4306D1D167
:10071C0081EA030101F000414FF0000070BD50EA86
:10072C00410606BF1046194652EA430619D094EA10
:10073C000C0F02D150EA013613D195EA0C0F05D1FA
:10074C0052EA03361CBF104619460AD181EA03014E
:10075C0001F0004141F0FE4141F470014FF0000006
:10076C0070BD41F0FE4141F4780170BD70B54FF0A1
:10077C00FF0C4CF4E06C1CEA11541DBF1CEA135521
:10078C0094EA0C0F95EA0C0F00F0A7F8A4EB050403
:10079C0081EA030E52EA03354FEA013100F08880FA
:1007AC004FEA03334FF0805545EA131343EA1263C3
:1007BC004FEA022245EA111545EA10654FEA002678
:1007CC000EF000419D4208BF964244F1FD0404F531
:1007DC00407402D25B084FEA3202B61A65EB03058D
:1007EC005B084FEA32024FF480104FF4002CB6EB4A
:1007FC00020E75EB030E22BFB61A754640EA0C00CA
:10080C005B084FEA3202B6EB020E75EB030E22BF09
:10081C00B61A754640EA5C005B084FEA3202B6EB4A
:10082C00020E75EB030E22BFB61A754640EA9C0009
:10083C005B084FEA3202B6EB020E75EB030E22BFD9
:10084C00B61A754640EADC0055EA060E18D04FEA97
:10085C00051545EA16754FEA06164FEAC30343EA37
:10086C0052734FEAC2025FEA1C1CC0D111F4801F04
:10087C000BD141EA00014FF000004FF0004CB6E7FD
:10088C0011F4801F04BF01430020B4F1FD0C88BF9C
:10089C00BCF5E06F3FF6AFAEB5EB030C04BFB6EBA7
:1008AC00020C5FEA500C50F1000041EB045170BD9A
:1008BC000EF0004E4EEA113114EB5C04C2BFD4EBC7
:1008CC000C0541EA045170BD41F480114FF0000E4B
:1008DC00013C90E645EA060E8DE60CEA135594EAC7
:1008EC000C0F08BF95EA0C0F3FF43BAF94EA0C0FCA
:1008FC000AD150EA01347FF434AF95EA0C0F7FF43F
:10090C0025AF104619462CE795EA0C0F06D152EA92
:10091C0003353FF4FDAE1046194622E750EA410676
:10092C0018BF52EA43067FF4C5AE50EA41047FF487
:10093C000DAF52EA43057FF4EBAE12E74FEA4102EA
:10094C00B2F1E04324BFB3F5001CDCF1FE5C0DD921
:10095C0001F0004C4FEAC0024CEA5070B2F1004F6B
:10096C0040EB830008BF20F00100704711F0804F6E
:10097C0021D113F13872BCBF01F00040704741F433
:10098C0080114FEA5252C2F11802C2F1200C10FA37
:10099C000CF320FA02F018BF40F001004FEAC1231B
:1009AC004FEAD32303FA0CFC40EA0C0023FA02F3BF
:1009BC004FEA4303CCE77FEA625307D150EA013395
:1009CC001EBF4FF0FE4040F44000704701F0004065
:1009DC0040F0FE4040F40000704700BF53B94AB9E4
:1009EC00002908BF00281CBF4FF0FF314FF0FF302B
:1009FC0000F00CB8ADF1080C6DE904CE01F070FDFF
:100A0C00DDF804E0DDE9022304B07047704700BF55
:100A1C0010B5054C237833B9044B13B10448AFF32C
:100A2C0000800123237010BD0C000020000000008A
:100A3C008C27000808B5034B1BB103490348AFF3DF
:100A4C00008008BD00000000100000208C2700086A
:100A5C002DE9F0438BB00024059406940794089478
:100A6C00099400943C4B1A6B42F080021A631A6B87
:100A7C0002F080020092009A01941A6B42F0080274
:100A8C001A631A6B02F008020192019A02941A6B13
:100A9C0042F040021A631A6B02F040020292029A70
:100AAC0003941A6B42F004021A631A6B02F00402EC
:100ABC000392039A04941A6B42F002021A631B6BA2
:100ACC0003F002030493049BDFF8989022464FF442
:100ADC004041484601F08FFBDFF88C8022464FF4F2
:100AEC00FE71404601F087FB1C4F224640213846E0
:100AFC0001F081FB1A4E22464FF40071304601F092
:100B0C007AFB4FF44043059301250695079408940E
:100B1C0005A9484601F064FA4FF4FE730593069557
:100B2C000794089405A9404601F05AFA402305930E
:100B3C0006950794089405A9384601F051FA4FF42C
:100B4C000073059306950794089405A9304601F0A7
:100B5C0047FA0BB0BDE8F0830038024000080240B1
:100B6C0000040240000C024000180240034B1A68BB
:100B7C0000235362536A8342FCD37047D400002095
:100B8C00F0B587B000240194029403940494059466
:100B9C004FF40076019601270297264D01A92846AD
:100BAC0001F01EFA22463146284601F024FB14209F
:100BBC0001F022FC3A463146284601F01CFB1E206F
:100BCC00FFF7D4FF0294039701A9284601F008FA15
:100BDC002820FFF7CBFF3146284601F005FB48B132
:100BEC00002401F003FC144B186001F0FFFB134BC5
:100BFC0018600FE05020FFF7B9FF3146284601F08E
:100C0C00F3FA04460028ECD00124EAE701F0EEFBED
:100C1C000A4B18604FF40071064801F0E5FA30B148
:100C2C00054B1B680233054A12689342EED82046E6
:100C3C0007B0F0BD00040240380000203400002052
:100C4C0038B500252C4643E001F0D0FB274B18604B
:100C5C004FF40071264801F0C7FA30B9254B1B68D8
:100C6C000233224A12689342EED82820FFF77EFF07
:100C7C004FF400711E4801F0B7FA78B9C4F10702BD
:100C8C0001239340DB435BB21D4001F0AFFB194BDA
:100C9C00186001F0ABFB154B18600AE0C4F10702B9
:100CAC00012393402B43DDB2EFE701F09FFB0F4B89
:100CBC0018604FF400710E4801F096FA30B10D4BEC
:100CCC001B680233094A12689342EED80134E4B22D
:100CDC00072C08D801F08AFB064B186001F086FB44
:100CEC00024B1860B4E7284638BD00BF3400002022
:100CFC00000402403800002000B5DFED1D7A20EE24
:100D0C00270AFDEEC07A17EE903A1A4A82FB0312BC
:100D1C004FEAE37CCCEBA21C174A02FB0C33174ABC
:100D2C0082FB0312D917C1EB62116FF0630202FB55
:100D3C000133134A82FB032EDA17C2EBAE026FF0BB
:100D4C00090E0EFB02330CF1300C80F800C0303170
:100D5C0041702E2181703032C270303303712023E8
:100D6C004371DF2383714323C3715DF804FB00BF20
:100D7C000000C842D34D621018FCFFFF1F85EB51D9
:100D8C006766666672B6FEE700B587B0002302930D
:100D9C00039304930593009301931448144A02603F
:100DAC00B322426083604FF6FF72C26003614361FD
:100DBC00836100F017FD90B94FF48053029302A9A0
:100DCC000A4800F048FD60B900230093019369467E
:100DDC00064800F0BFFD30B907B05DF804FBFFF723
:100DEC00D1FFFFF7CFFFFFF7CDFF00BFD4000020EE
:100DFC000000014000B595B03022002108A801F098
:100E0C0042FB0023039304930593069307930193EA
:100E1C00224A116C41F080511164126C02F0805224
:100E2C000192019A02931E4A116841F440411160EB
:100E3C00126802F440420292029A022208920121A4
:100E4C000B9110210C910E920F9308231093B42345
:100E5C00119312920423139308A800F0C1FDB0B9AA
:100E6C0001F0D0F9A8B90F230393022304930023B4
:100E7C0005934FF4A05306934FF480530793052129
:100E8C0003A800F0FDFF30B915B05DF804FBFFF7C7
:100E9C0079FFFFF777FFFFF775FF00BF00380240BF
:100EAC000070004080B592B001F07AFAFFF7A2FF13
:100EBC00FFF7CEFDFFF768FF7D4800F0F1FB7D4E9C
:100ECC00304600F027FB7C4C0EAF94E80F0087E80F
:100EDC000F0006AD10340FCC0FC594E80F0085E859
:100EEC000F00346C009606AB3A4601210220A04755
:100EFC00D6F884303146714898474FF4FA6001F0C7
:100F0C007BFA736C3046984736E0012208216C4816
:100F1C0001F071F96B4C00224FF40041204601F0B6
:100F2C006AF900224FF48041204601F064F91FE079
:100F3C0000220821624801F05EF9624C00224FF455
:100F4C000041204601F057F901224FF48041204620
:100F5C0001F051F90CE001224FF40041594801F025
:100F6C004AF905E001224FF48041564801F043F95B
:100F7C004FF4FA6001F040FA00220421504801F0CD
:100F8C003AF9504C00224FF40041204601F033F95D
:100F9C0000224FF48041204601F02DF9FFF7F0FDBF
:100FAC000028DFD0FFF74CFE474C2070FFF748FEBF
:100FBC00464E3070FFF744FE454F3870FFF740FE49
:100FCC00444D2870FFF73CFE0146434B18702478C3
:100FDC003678A2193B781A44287802448A42BAD14E
:100FEC0007EE903AB8EE678AFFF72CFA00223B4BDB
:100FFC00FFF7BCFBFFF7A2FC07EE900A78EE277A0E
:10100C00374DC5ED007AB2EE027A67EE877AF1EED3
:10101C00046A87EEA67ADFED337A77EE277A324BC5
:10102C00C3ED007A07EE904AB8EE678A3046FFF7B8
:10103C0009FA0022294BFFF799FBFFF77FFC07EE1B
:10104C00900A38EE278A294B83ED008A012204216D
:10105C001B4801F0D0F80023039304938DF814304F
:10106C0003A895ED000AFFF747FE124CA36C20462F
:10107C009847D4F88430214603A898473B780E2B28
:10108C007FF643AF182B3FF653AF002208210C48D4
:10109C0001F0B1F80B4C01224FF40041204601F055
:1010AC00AAF800224FF48041204601F0A4F85FE733
:1010BC00D400002044000020A4270008D4270008F6
:1010CC0000180240000C0240400000203F000020AD
:1010DC003E0000203D0000203C0000200000244089
:1010EC0030000020000000422C00002028000020CE
:1010FC0008B5014690F8390040F0040381F8393006
:10110C00D1F8883040F00C00984708BD08B501466E
:10111C0090F8390000F0FB0081F83900D1F88830E4
:10112C0040F00800984708BD08B5014690F8390012
:10113C0000F0FE0081F83900D1F8883040F008004A
:10114C00984708BD08B5014690F8390040F00103F6
:10115C0081F83930D1F8883040F00900984708BD43
:10116C0008B5014690F8390000F0FD0081F839000F
:10117C00D1F8883040F00800984708BD08B5014602
:10118C0090F8390040F0020381F83930D1F88830FA
:10119C0040F00A00984708BD08B50146D0F88830E1
:1011AC001820984708BD08B50146D0F888301C2097
:1011BC00984708BD08B5014690F83A0040F0020384
:1011CC0081F83A30D1F8883040F00600984708BDD5
:1011DC0008B5014690F83A0000F0FD0081F83A009D
:1011EC00D1F8883040F00400984708BD08B5014696
:1011FC0090F83A0040F0010381F83A30D1F8883089
:10120C0040F00500984708BD08B5014690F83A0033
:10121C0000F0FE0081F83A00D1F8883040F004006C
:10122C00984708BD08B50B4611461268934202DB7D
:10123C00D2B2013AD3B20F2800D90F20D1F88820AE
:10124C000B4493F83B30184460F07F00C0B29047D9
:10125C0008BD000010B50D4C00224021204600F0C6
:10126C00CAFF012001F0C8F801224021204600F0FD
:10127C00C2FF012001F0C0F800224021204600F0FE
:10128C00BAFF642001F0B8F810BD00BF001802408E
:10129C0070B506460D46002409E0211DA31D002251
:1012AC0035F8111055F8230000F0A5FF0134072C78
:1012BC000EDC46FA04F313F0010FEED0211DA31D32
:1012CC00012235F8111055F8230000F094FFEDE7DA
:1012DC00FFF7C0FF70BD70B506460D46002409E04F
:1012EC00211DA31D002235F8111055F8230000F024
:1012FC0082FF0134032C0EDC46FA04F313F0010FC9
:10130C00EED0211DA31D012235F8111055F8230034
:10131C0000F071FFEDE7FFF79DFF70BD38B5054696
:10132C001446012910D0002280210D4800F063FFE3
:10133C006368082B0ED021462809FFF7CCFF214605
:10134C002846FFF7C8FF38BD01228021044800F071
:10135C0052FFEDE721462846FFF79AFFF3E700BF5F
:10136C000018024008B50A460121FFF7D7FF08BD57
:10137C0008B50A460021FFF7D1FF08BD70B5054638
:10138C000E46002404E032460121FFF7C7FF01346A
:10139C00285D0028F7D170BD70B50E46154600F0DB
:1013AC000700D2F88830C000114640F04000984742
:1013BC00002405E02A460121305DFFF7AFFF013420
:1013CC00072CF7DD70BD08B50146D0F88830022037
:1013DC0098474FF4FA6001F00FF808BD08B50146C4
:1013EC00D0F88830012098474FF4FA6001F004F8E7
:1013FC0008BD38B5049C4FF0000C0DE032F81C50C1
:10140C000CF1040E24F81E500CF1060E53F82C505F
:10141C0044F82E500CF1010CBCF1070FEEDD002945
:10142C0057D0002384F8383004236360012805D09A
:10143C0094F8383043F0080384F8383020600023E7
:10144C0084F83B30402384F83C30102384F83D3042
:10145C00502384F83E30322000F0CEFF6368042B1A
:10146C003DD0D4F8883094F83800214640F0200064
:10147C009847322000F0C0FFD4F8883094F8380038
:10148C00214640F020009847322000F0B5FFD4F8F8
:10149C00883094F83800214640F020009847D4F862
:1014AC00883094F83800214640F0200098470423F7
:1014BC0084F83930E36C20469847636C2046984793
:1014CC00022384F83A30D4F8883021460620984715
:1014DC0038BD102384F8383008236360A6E7214612
:1014EC000320FFF7F8FE322000F086FF2146032090
:1014FC00FFF7F1FE322000F07FFF21460320FFF7BB
:10150C00EAFE962000F078FF21460220FFF7E3FE6A
:10151C00C5E70000164B0364164B4364164B8364FB
:10152C00164BC364164B0365164B4365164B83650C
:10153C00164BC365164B0366164B4366164B8366F8
:10154C00164BC366164B0367164B4367164B8367E4
:10155C00164BC367164BC0F88030164BC0F884305E
:10156C00154BC0F88830154BC0F88C30704700BF55
:10157C00FF130008E9130008D3130008FD1000083E
:10158C001911000835110008511100086D110008DF
:10159C0089110008A5110008B3110008C111000839
:1015AC00DD110008F911000815120008A513000838
:1015BC0031120008891300087D130008711300080C
:1015CC00FEE7FEE7FEE7FEE7FEE770477047704771
:1015DC0008B500F0FFFE08BD82B0002100910B4B56
:1015EC005A6C42F480425A645A6C02F48042009263
:1015FC00009A01911A6C42F080521A641B6C03F031
:10160C0080530193019B02B0704700BF0038024029
:10161C000268094B9A4200D0704782B000230193B4
:10162C00064B5A6C42F001025A645B6C03F00103E6
:10163C000193019B02B0704700000140003802404A
:10164C0010B4036A046A24F001040462846924F06F
:10165C00F00C4CEA021223F00A030B438261036282
:10166C005DF8044B704710B4036A23F01003036257
:10167C008469036A24F4704C4CEA023223F0A00310
:10168C0043EA0113826103625DF8044B704783687F
:10169C0023F070030B4343F0070383607047000093
:1016AC0090F83D30DBB2012B32D1022380F83D3073
:1016BC000368194A934220D0B3F1804F1DD0A2F594
:1016CC007C42934219D002F58062934215D002F508
:1016DC008062934211D002F5784293420DD002F50C
:1016EC007052934209D0A2F59432934205D01A68F5
:1016FC0042F001021A60002070479A6802F007025B
:10170C00062A07D01A6842F001021A6000207047BE
:10171C000120704700207047000001400368304AE8
:10172C00904212D0B0F1804F0FD0A2F57C42904283
:10173C000BD002F58062904207D002F58062904295
:10174C0003D002F57842904203D123F070034A682B
:10175C001343234A90422AD0B0F1804F27D0A2F5F0
:10176C007C42904223D002F5806290421FD002F559
:10177C00806290421BD002F57842904217D002F55D
:10178C007052904213D002F5806290420FD002F555
:10179C00806290420BD0A2F59832904207D002F5AD
:1017AC008062904203D002F58062904203D123F410
:1017BC004073CA68134323F080034A6913430360E0
:1017CC008B68C3620B688362054B984203D003F5A8
:1017DC008063984201D10B69036301234361704715
:1017EC000000014040B310B5044690F83D30F3B111
:1017FC00022384F83D30214651F8040BFFF78EFF8D
:10180C00012384F8463084F83E3084F83F3084F865
:10181C00403084F8413084F8423084F8433084F806
:10182C00443084F8453084F83D30002010BD80F8F9
:10183C003C30FFF7EDFEDBE70120704710B4846805
:10184C0024F47F4C42EA03220A4342EA0C028260EF
:10185C005DF8044B704790F83C30012B78D010B5F4
:10186C000446012380F83C30022380F83D300268A6
:10187C00936823F47F4323F0770393600B68602B0A
:10188C004CD029D8402B54D00CD9502B22D1CA681B
:10189C0049680068FFF7D4FE50212068FFF7F7FE77
:1018AC00002005E0202B0DD009D9302B0AD00120C7
:1018BC00012384F83D30002384F83C3010BD0BB17B
:1018CC00102B05D119462068FFF7E1FE0020EFE749
:1018DC000120EDE70120EBE7B3F5805F34D0B3F5E1
:1018EC00005F0CD1CB684A6889680068FFF7A6FFD7
:1018FC002268936843F4804393600020D8E7702BF0
:10190C0024D1CB684A6889680068FFF797FF226882
:10191C00936843F0770393600020C9E7CA6849686D
:10192C000068FFF7A0FE60212068FFF7B0FE0020E2
:10193C00BEE7CA6849680068FFF782FE402120684C
:10194C00FFF7A5FE0020B3E70020B1E70120AFE7C9
:10195C000220704790F83C20012A3DD010B4034679
:10196C00012280F83C20022280F83D200268506859
:10197C00946820F0700C086840EA0C0050601A68FB
:10198C00164882421AD0B2F1804F17D0A0F57C4095
:10199C00824213D000F5806082420FD000F5806047
:1019AC0082420BD000F57840824207D000F570508F
:1019BC00824203D0A0F59430824204D124F08004FA
:1019CC00496821439160012283F83D20002083F86F
:1019DC003C005DF8044B704702207047000001404A
:1019EC00002800F0E08170B582B00446036813F063
:1019FC00010F3BD09F4B9B6803F00C03042B2CD0A6
:101A0C009C4B9B6803F00C03082B21D06368B3F547
:101A1C00803F4FD0B3F5A02F52D0964B1A6822F4CA
:101A2C0080321A601A6822F480221A606368002BD4
:101A3C0050D000F0DBFC05468E4B1B6813F4003FC6
:101A4C0014D100F0D3FC401B6428F5D90320B1E17C
:101A5C00884B5B6813F4800FD8D0864B1B6813F44B
:101A6C00003F03D06368002B00F09F81236813F0C4
:101A7C00020F54D07F4B9B6813F00C0F3ED07D4B64
:101A8C009B6803F00C03082B33D0E368002B68D061
:101A9C00794B01221A6000F0A9FC0546754B1B68B6
:101AAC0013F0020F54D100F0A1FC401B0228F5D911
:101ABC0003207FE16F4A136843F480331360B5E76A
:101ACC006C4B1A6842F480221A601A6842F4803215
:101ADC001A60ABE700F08AFC0546664B1B6813F4F2
:101AEC00003FC3D000F082FC401B6428F5D90320D2
:101AFC0060E1604B5B6813F4800FC6D15D4B1B68D3
:101B0C0013F0020F03D0E368012B40F05081594AC7
:101B1C00136823F0F803216943EAC10313602368B7
:101B2C0013F0080F42D063696BB3534B0122C3F817
:101B3C00802E00F05BFC05464E4B5B6F13F0020FE2
:101B4C0034D100F053FC401B0228F5D9032031E1BD
:101B5C00484A136823F0F803216943EAC103136070
:101B6C00DDE7454B00221A6000F040FC0546414B76
:101B7C001B6813F0020FD2D000F038FC401B022877
:101B8C00F5D9032016E13C4B0022C3F8802E00F05F
:101B9C002DFC0546374B5B6F13F0020F06D000F09F
:101BAC0025FC401B0228F5D9032003E1236813F020
:101BBC00040F77D02F4B1B6C13F0805F33D10023B5
:101BCC0001932C4B1A6C42F080521A641B6C03F07C
:101BDC0080530193019B0125284B1B6813F4807FD4
:101BEC0023D0A368012B34D0052B38D0214B1A6F8E
:101BFC0022F001021A671A6F22F004021A67A36816
:101C0C00002B3DD000F0F2FB06461A4B1B6F13F075
:101C1C00020F46D100F0EAFB801B41F28833984258
:101C2C00F3D90320C6E00025D6E7144A136843F421
:101C3C008073136000F0DAFB0646104B1B6813F43C
:101C4C00807FCED100F0D2FB801B0228F5D9032077
:101C5C00B0E0084A136F43F001031367CFE7054B5D
:101C6C001A6F42F004021A671A6F42F001021A67E7
:101C7C00C5E700BF0038024000004742007000403A
:101C8C0000F0B4FB0646524B1B6F13F0020F08D04A
:101C9C0000F0ACFB801B41F288339842F3D903204F
:101CAC0088E0EDB9A369002B00F08380484A926864
:101CBC0002F00C02082A51D0022B17D0454B0022FF
:101CCC001A6600F093FB0446414B1B6813F0007F2F
:101CDC0042D000F08BFB001B0228F5D9032069E0F1
:101CEC003B4A136C23F080531364DBE7394B00221F
:101CFC001A6600F07BFB0546354B1B6813F0007F22
:101D0C0006D000F073FB401B0228F5D9032051E0EC
:101D1C00E369226A1343626A43EA8213A26A520895
:101D2C00013A43EA0243E26A43EA0263284A5360F7
:101D3C00284B01221A6600F059FB0446244B1B6801
:101D4C0013F0007F06D100F051FB001B0228F5D9DF
:101D5C0003202FE000202DE000202BE0012B2BD0C6
:101D6C001B4B5B6803F48001E269914226D103F0BE
:101D7C003F02216A8A4223D1616A47F6C0721A4037
:101D8C00B2EB811F1ED103F44031A26A5208013A12
:101D9C00B1EB024F18D103F07063E26AB3EB026F40
:101DAC0014D1002006E001207047012002E0012040
:101DBC0000E0002002B070BD0120FBE70120F9E734
:101DCC000120F7E70120F5E70120F3E70120F1E717
:101DDC00003802400000474208B5264B9B6803F0D0
:101DEC000C03042B41D0082B41D1224B5A6802F032
:101DFC003F025B6813F4800F12D01E4B5968C1F37D
:101E0C0088111D480023A1FB0001FEF7E7FD194BCB
:101E1C005B68C3F3014301335B00B0FBF3F027E0D5
:101E2C00144B5868C0F388104FEA401CBCEB000CF4
:101E3C006EEB0E0E4FEA8E1343EA9C634FEA8C1145
:101E4C00B1EB0C0163EB0E03DB0043EA5173C900E9
:101E5C0011EB000C43F10003990200234FEA8C2094
:101E6C0041EA9C51FEF7BAFDD1E7034800E0034874
:101E7C0008BD00BF0038024040787D010024F4000A
:101E8C00002800F09B8070B50D4604464F4B1B6834
:101E9C0003F00F038B4208D2CBB24C4A1370136879
:101EAC0003F00F038B4240F08B80236813F0020F7A
:101EBC0017D013F0040F04D0454A936843F4E05351
:101ECC009360236813F0080F04D0414A936843F4DD
:101EDC00604393603E4A936823F0F003A1680B4380
:101EEC009360236813F0010F32D06368012B21D06B
:101EFC009A1E012A25D9364A126812F0020F61D0B7
:101F0C0033498A6822F0030213438B6000F06EFAA7
:101F1C0006462F4B9B6803F00C036268B3EB820FF1
:101F2C0016D000F063FA801B41F288339842F0D946
:101F3C00032042E0264A126812F4003FE0D101204F
:101F4C003BE0234A126812F0007FD9D1012034E023
:101F5C001E4B1B6803F00F03AB4207D9EAB21B4BB5
:101F6C001A701B6803F00F03AB422DD1236813F0DA
:101F7C00040F06D0164A936823F4E053E1680B4330
:101F8C009360236813F0080F07D0114A936823F469
:101F9C006043216943EAC1039360FFF71DFF0C4BBB
:101FAC009B68C3F303130B4AD35CD8400A4B1860ED
:101FBC000A4B186800F0CEF9002070BD0120704764
:101FCC000120FAE70120F8E70120F6E7003C024087
:101FDC0000380240E427000808000020040000201C
:101FEC0000230F2B00F2F68070B582B066E0856896
:101FFC004FEA430E032404FA0EF425EA0405CC68D8
:10200C0004FA0EF42C438460446824EA02044A68FF
:10201C00C2F300129A40224342605DE0DC080834AF
:10202C0050F8242003F00705AD004FF00F0E0EFA08
:10203C0005FE22EA0E0E0A69AA4042EA0E0240F898
:10204C0024205DE0092200E0002202FA0EF22A436D
:10205C000234614D45F82420604A94686FEA0C0202
:10206C0024EA0C054E6816F4801F01D04CEA0405D6
:10207C005A4CA560E46802EA04054E6816F4001F89
:10208C0001D04CEA0405554CE560646802EA04058D
:10209C004E6816F4003F01D04CEA04054F4C6560C5
:1020AC00246822404D6815F4803F01D04CEA0402AC
:1020BC004A4C226001330F2B00F28A8001229A4095
:1020CC000C6804EA020C32EA0404F3D14C6804F004
:1020DC000304013C012C8AD94A6802F00302032A4A
:1020EC0009D0C4685D000322AA4024EA02048A686D
:1020FC00AA402243C2604A6802F00302022A8DD031
:10210C0004684FEA430E032202FA0EF224EA020498
:10211C004A6802F0030202FA0EF2224302604A6895
:10212C0012F4403FC6D0002201922D4A546C44F464
:10213C0080445464526C02F480420192019A9C08CF
:10214C00A51C254A52F8255003F0030E4FEA8E0EBB
:10215C000F2202FA0EF225EA0205224A90423FF4BF
:10216C0073AF02F58062904222D002F580629042F9
:10217C0020D002F5806290421ED002F5806290421F
:10218C001CD002F5806290421AD002F58062904217
:10219C0018D002F58062904216D002F5806290420F
:1021AC0014D002F5806290423FF44CAF0A224CE707
:1021BC0001224AE7022248E7032246E7042244E7C9
:1021CC00052242E7062240E707223EE708223CE7C9
:1021DC0002B070BD704700BF00380140003C0140A8
:1021EC0000380240000002400369194201D001206E
:1021FC007047002070470AB1816170470904816102
:10220C007047000010B582B000230193194B1A6C73
:10221C0042F080521A641B6C03F080530193019BB3
:10222C00154B01221A6400F0E1F80446134B5B686D
:10223C0013F4803F08D100F0D9F8001BB0F57A7F79
:10224C00F4D9032002B010BD0B4B01225A6400F0EC
:10225C00CDF80446094B5B6813F4003F07D100F03E
:10226C00C5F8001BB0F57A7FF4D90320EAE700200B
:10227C00E8E700BF0038024000000E42007000404A
:10228C00002808DB0901C9B200F1604000F561408B
:10229C0080F80013704700F00F000901C9B2014B20
:1022AC001954704714ED00E000B500F00700C0F1C0
:1022BC00070CBCF1040F28BF4FF0040C031D062BB8
:1022CC000FD9C31E4FF0FF3E0EFA0CF021EA0001AD
:1022DC0099400EFA03FE22EA0E0241EA02005DF872
:1022EC0004FB0023EEE70000074AD36823F4E06305
:1022FC001B041B0C000200F4E060034343F0BF63BB
:10230C0043F40033D360704700ED00E010B5044691
:10231C00054BD868C0F30220FFF7C6FF01462046E4
:10232C00FFF7AEFF10BD00BF00ED00E00138B0F1CB
:10233C00807F0BD24FF0E0235861054AF02182F8E0
:10234C0023100020986107221A6170470120704702
:10235C0000ED00E010B504460E4B1A784FF47A737A
:10236C00B3FBF2F30C4A1068B0FBF3F0FFF7DEFF9F
:10237C0068B90F2C01D901200AE0002221464FF048
:10238C00FF30FFF7C3FF054B1C60002000E001206D
:10239C0010BD00BF00000020080000200400002039
:1023AC0008B50B4B1A6842F400721A601A6842F4B2
:1023BC0080621A601A6842F480721A600320FFF778
:1023CC0093FF0F20FFF7C6FFFFF706F9002008BDAB
:1023DC00003C0240034A1168034B1B780B4413600A
:1023EC00704700BF1C01002000000020014B186842
:1023FC00704700BF1C01002038B50446FFF7F6FFFC
:10240C000546B4F1FF3F02D0044B1B781C44FFF788
:10241C00EDFF401BA042FAD338BD00BF00000020E6
:10242C00034AD2F8883043F47003C2F888307047FE
:10243C0000ED00E0DFF834D00D480E490E4A0023C1
:10244C0002E0D458C4500433C4188C42F9D30B4A5C
:10245C000B4C002301E013600432A242FBD3FFF7C4
:10246C00DFFF00F019F8FEF71DFD70470000032098
:10247C00000000200C000020042800080C000020A4
:10248C0020010020FEE702440346934200D170472E
:10249C0003F8011BF9E7000070B50D4D0D4C641BE2
:1024AC00A4100026A64209D10B4D0C4C00F068F983
:1024BC00641BA4100026A64205D170BD55F8043B40
:1024CC0098470136EEE755F8043B98470136F2E79A
:1024DC00FC270008FC270008FC270008002800083F
:1024EC002DE9F04786468C460846089E15467446EC
:1024FC001946002B40F0C2808542B2FA82F245D9CF
:10250C004AB1C2F1200300FA02FC2EFA03F3954003
:10251C0043EA0C0C94404FEA154EA8B2BCFBFEF8F3
:10252C00230C0EFB18CC08FB00F943EA0C4399452D
:10253C0028D9EB1808F1FF3704D2994502D9A8F134
:10254C0002072B44A3EB0903A4B2B3FBFEFC0EFB66
:10255C001C330CFB00F044EA0344A04214D92C19A0
:10256C000CF1FF3304D2A04202D9ACF102032C448B
:10257C00241A43EA07401EB1D44000233460736030
:10258C00BDE8F0874746DDE76346F1E792BB431BA6
:10259C0001214FEA154EAFB2B3FBFEFC200C0EFB33
:1025AC001C330CFB07F840EA0343984562D9EB183F
:1025BC000CF1FF3004D2984502D9ACF102002B4447
:1025CC00A3EB0803A4B2B3FBFEFC0EFB1C330CFB09
:1025DC0007F744EA0344A7424ED92C190CF1FF33F8
:1025EC0004D2A74202D9ACF102032C44E41B43EA07
:1025FC000040C0E7C2F1200320FA03F1954090405F
:10260C002EFA03F303434FEA154EAFB2B1FBFEFCB7
:10261C000EFB1C10190C0CFB07F841EA0041884515
:10262C0004FA02F422D969180CF1FF3004D288455F
:10263C0002D9ACF102002944A1EB08019BB2B1FB19
:10264C00FEFC0EFB1C110CFB07F743EA01439F42F7
:10265C000ED9EB180CF1FF3104D29F4202D9ACF128
:10266C0002012B44DB1B41EA004192E76046E3E7A1
:10267C006146F7E76046A3E76346B7E7834206D9AE
:10268C0016B9002108467BE7C6E900E0F9E7B3FA82
:10269C0083F78FB9834201D3724508D8BEEB02048D
:1026AC0060EB030301209C461EB9002168E7384605
:1026BC00FAE7C6E9004CF8E7C7F1200CBB4022FA58
:1026CC000CF41C432EFA0CF120FA0CF3B840014325
:1026DC004FEA14490EFA07F5B3FBF9F81FFA84FE1A
:1026EC0009FB18300B0C08FB0EFA43EA00439A4521
:1026FC0002FA07F240D9E31808F1FF3004D29A45E8
:10270C0002D9A8F102002344A3EB0A0389B2B3FB5C
:10271C00F9F809FB183308FB0EFE41EA03418E451C
:10272C002CD9611808F1FF3304D28E4502D9A8F1D7
:10273C000203214443EA0040A0FB0298A1EB0E01E6
:10274C004145CE46434602D306D14D4504D2B9EBA2
:10275C00020E68EB04030138002EA6D0B5EB0E0276
:10276C0061EB030101FA0CFC22FA07F34CEA0303B8
:10277C00F940C6E9003198E74046C5E74346D9E73A
:10278C00F8B500BFF8BC08BC9E467047F8B500BF52
:08279C00F8BC08BC9E46704722
:1027A40000014000200010000000000000000000B4
:1027B40000180240000802400018024000180240BD
:1027C4000000000000000000000000000000000005
:1027D40044485431312073656E736F7200000000F9
:1027E40000000000000000000102030406070809BD
:0827F400F8FCFF7F010000006A
:0427FC00410A000886
:042800001D0A0008A5
:0C28040001000000100000000024F4009F
:04000005080024418A
:00000001FF
